:020000040800F2
:1000000058070020A9010008CB2F00085F2A00082C
:10001000C92F00086F140008B53200080000000066
:10002000000000000000000000000000CF2F0008CA
:100030007114000800000000CD2F0008D12F000827
:10004000C3010008C3010008C3010008C301000880
:10005000C3010008C3010008C3010008C301000870
:10006000C3010008C3010008C3010008C301000860
:10007000C3010008C3010008C3010008C301000850
:10008000C3010008C3010008C3010008C301000840
:10009000C3010008C3010008C3010008C301000830
:1000A000C3010008C3010008C3010008C301000820
:1000B000C3010008C3010008C3010008C301000810
:1000C000C3010008C3010008C3010008C301000800
:1000D000C3010008A9320008C3010008C3010008D9
:1000E000C3010008C3010008C301000800F002F8C2
:1000F00000F04AF80AA090E8000C82448344AAF178
:100100000107DA4501D100F03FF8AFF2090EBAE875
:100110000F0013F0010F18BFFB1A43F0010318473B
:100120008C3E0000AC3E0000103A24BF78C878C175
:10013000FAD8520724BF30C830C144BF04680C60ED
:10014000704700000023002400250026103A28BF35
:1001500078C1FBD8520728BF30C148BF0B60704739
:10016000662903F05286642900F0668000207047FB
:100170001FB500F03FFC04000020002103F0CEFB7F
:10018000E0601FBD10B510BD00F034FD1146FFF753
:10019000EFFF03F0C1F900F052FD03B4FFF7F2FFE7
:1001A00003BC00F095FD000009488047094800475E
:1001B000FEE7FEE7FEE7FEE7FEE7FEE7FEE7FEE717
:1001C000FEE7FEE704480549054A064B7047000074
:1001D00025300008ED0000085801002058070020D5
:1001E0005803002058030020B2F120030AD5C2F1C1
:1001F000200320FA02F001FA03F321FA02F140EAA7
:100200000300704721FA03F04FF00001704700002F
:100210000FB41CB5074B06AA7B44694600900598AD
:1002200000F0CFFB0020694600F0DEFB1CBC5DF84F
:1002300014FB0000CD0700002DE9F0410646002424
:1002400010687529314616A510D0AFF3008000283C
:1002500002DA404213A507E031688A0701D512A5EA
:1002600002E0490704D511A5012401E0AFF30080A5
:1002700000210A2206F1240709E0B0FBF2FCB0FBE2
:10028000F2F302FB1C00303078541846491C002859
:10029000F3D123462A463046BDE8F04100F023B9A9
:1002A000000000002D0000002B00000020000000D6
:1002B0002DE9F0474FF0000A89460446C0F820A017
:1002C0002046E1688847002876D0252806D0D4E962
:1002D00001219047206A401C2062F1E7E168204636
:1002E00000258847C4F81CA006460027C4F818A0BB
:1002F0002A2E09D0304603F002F838B304EB870801
:10030000303EC8F8186019E059F8041B204604EB89
:1003100087029161E1688847012F064618D1E0699C
:10032000002820DA25F020051DE0D8F8180000EBA1
:10033000800006EB40003038C8F818002046E1681D
:100340008847064602F0DBFF0028EED1012F0AD0D5
:100350002E2E08D12046E16888477F1C0646022FD2
:1003600045F02005C4DBA069002803DA404245F0CF
:100370000105A061E80701D025F01005B6B1A6F18E
:100380004100192802D8203645F400654A46314616
:10039000204625604D46FFF7E3FE58B1012806D000
:1003A000ED1D25F0070000F1080989E704E005F1DB
:1003B000040985E730468AE7206ABDE8F08710B572
:1003C000431C02E010F8011B71B18107FAD14FF014
:1003D000013202C88C1A8C4314EAC211F9D0C01A37
:1003E0000A0603D0C01E10BDC01A10BD0A0401D0F9
:1003F000801E10BD0902FCD0401E10BD40EA010362
:1004000070B59B072ED14FF00136042A2AD308C8B5
:1004100010C99D1B9D43121F15EAC61517D0D8B2EF
:10042000E1B2401A50EA056110D198B2A1B2401A67
:1004300050EA05410AD123F07F4024F07F41401A61
:1004400050EA052102D1180EA0EB146070BDA34242
:10045000DBD018BA21BA884201D9012070BD4FF013
:10046000FF3070BD0AB9002070BD10F8013B11F8D3
:10047000014B63B1A3420AD1521E08D010F8013BD0
:1004800011F8014B1BB1A34201D1521EEDD1181B33
:1004900070BD4FF0000200B51346944696462039D1
:1004A00022BFA0E80C50A0E80C50B1F12001BFF42D
:1004B000F7AF090728BFA0E80C5048BF0CC05DF893
:1004C00004EB890028BF40F8042B08BF704748BFE1
:1004D00020F8022B11F0804F18BF00F8012B704755
:1004E0007047704770472DE9F0470D469946924690
:1004F000044600F124080168880604D5E06921F06B
:100500001001216000E00120A84201DD471B00E04E
:100510000027A1697A1902EB0900081AA061207866
:10052000C00602D42046AFF30080002608E0D4E9DC
:1005300001211AF806009047206A401C761C2062B0
:100540004E45F4DB2078C0060AD52046AFF3008084
:1005500006E0D4E9012130209047206A401C206247
:10056000381EA7F10107F4DC07E0D4E9012118F8EF
:1005700005009047206A401C2062281EA5F1010555
:10058000F3DC2046AFF300802078000602D502207D
:10059000BDE8F0870120FBE770472DE9FF4F0C46CF
:1005A0001E464FF0FF378BB0D2E90001DDF86080C6
:1005B0000A908A46C1F30A5505B93D46002108460E
:1005C0004FF00000BAF1000F00F4400005DA00EB34
:1005D00080004FF4400101EA50004FEA9059B9F110
:1005E000010F00DDB9460A9850EA4A000ED044F6E1
:1005F0001050A5F2FF3545432F14B8F1000F1ED05F
:100600007542291E1EDDC9F100021CE0B8F1010F80
:100610004FF0000001D0302103E0F24305E0215407
:10062000401CB042FBDB30460022002121540B99D4
:10063000C1F80880C1E900200FB0BDE8F08FBD1BF4
:100640006D1CDEE74A4600DA694206A800F05CFA53
:1006500006AB93E8070003AB83E8070050460A990E
:1006600000F03DFB8DE80700A0F500501F3800901A
:100670000398002D0ADD42F21F014A460844002378
:1006800003A90390684600F0A6FD09E0A0F500501C
:100690004A461F38002303A90390684600F0B0FDC6
:1006A0008DE807000004000C03D04FF0FF30410834
:1006B00000E01046B8F1000F03D00022009215466A
:1006C0001EE0751E05D400F099F9303262556D1E9A
:1006D000F9D5B3460122084302D000227F1C04E072
:1006E0002078302801D100227F1E002A099784D06B
:1006F0001DE0112D07DA00F081F9303262556D1CD2
:1007000050EA0102F5D1084302D00098C8B10EE0CA
:100710000021681E05E0235C625C63542254401E85
:10072000491C8142F7DBAB46A81B401E0990002004
:1007300004F80B000B98099AC0F80880C0E9002B58
:100740007AE711264FF0000857E72DE9F04F884669
:100750000446D21D22F0070191B0D1E90001CDE994
:100760000A0102F0A8FD02460B98C00F01D02D200F
:1007700007E02068810701D52B2002E0202101EA53
:10078000C000032A099001D0072A05DB0346414631
:10079000204600F079F90BE12078800601D5E06968
:1007A00000E00620B8F1650F814606D0B8F1660F6B
:1007B00018D0B8F1670F70D131E00020B9F1110FF6
:1007C000009001DB112301E009F101030AAA01A94C
:1007D0000CA8FFF7E2FEDDE90C70002609F1010527
:1007E000834647E001204B4600904FF000470AAA9D
:1007F00001A90CA8FFF7D1FEDDE90DB00C995D460B
:10080000002610B909F101000D18B9EB050003D459
:10081000C0F1FF3609F10105A5EB09002BE0B9F1A4
:10082000010F01DA4FF001090020B9F1110F00901A
:10083000484601DD112300E003460AAA01A90CA8DD
:10084000FFF7ABFEDDE90C704D46002683462078AD
:1008500000070AD4AB4500DA5D4601A8012D04DD8E
:10086000411911F8011C302907D04F4502DA17F160
:10087000040F04DA012082460FE06D1EEEE7002F20
:1008800002DCED1B3E4403E0781CA84200DD7D1C29
:10089000B81B00F1010A4FF000472078000703D48D
:1008A000AA4501DB4FF0FF3A0021B7F1004F0DF1EF
:1008B00043088DF8431024D002202B23002F01DAA7
:1008C0007F422D230A21021EA0F1010000DC5FB14E
:1008D00097FBF1FC97FBF1F201FB1C7C17460CF136
:1008E000300C08F801CDEEE7A8F101000370218873
:1008F000090501D5452100E06521A0F1010800F8B6
:10090000011C09980FA9A1EB0807FF1D00B10120E8
:10091000411901EBEA70A1693844081A401EA06130
:100920002078C00602D42046AFF30080099828B191
:10093000D4E901219047206A401C20622078C0063B
:1009400022D52046AFF300801EE0002E04DBB34525
:1009500002DD01A8805D00E03020D4E9012190474C
:10096000206A401C2062761CAAF101005FEA000A9E
:100970000AD100F03FF8C0680168405CD4E9012169
:100980009047206A401C2062281EA5F10105DCDC8E
:1009900007E0D4E9012118F8010B9047206A401CB8
:1009A0002062381EA7F10107F3DC2046AFF3008078
:1009B000032011B041E6000001694A1C0261087879
:1009C000704700B58FB0CDE901310021059105498F
:1009D0007944CDE9031011466846FFF769FC0FB072
:1009E00000BD0000E5FFFFFF0A6802F8010B0A6086
:1009F00070470000004870471801002030B5B0F182
:100A00000A024FEA900E71F100034EEA817EB0EBCC
:100A10000E0061EB91014FEA101E4EEA017E10EBD1
:100A20000E0041EB11114FEA102E4EEA016E10EB51
:100A30000E0041EB11214FEA104E4EEA014E10EB31
:100A40000E0041EB1141401841F100014FEAD00086
:100A500040EA41704FEAD10110EB80054FEA810472
:100A600044EA907444EB01046D1944EB0404521BF6
:100A7000A3414FF0000348BF0A3200D530BD401CEF
:100A800041F1000130BD00002DE9F0411F46044650
:100A900003260168072A01F4006004DB08B116A5EB
:100AA00005E016A503E008B115A500E015A521F0A5
:100AB00010002060A069C01EA0610FB1401EA0619F
:100AC0002046AFF300804FB1D4E90121384690476A
:100AD000206A401C2062C01C206206E0206AFAE7FF
:100AE000D4E9012115F8010B9047761EF8D2204673
:100AF000AFF30080BDE8F0814E414E006E616E00A4
:100B0000494E4600696E66002DE9F047814616465B
:100B10008AB0354878440DC88DE80D0032487844D5
:100B2000801C03AC0DC884E80D0041F69B300844DE
:100B3000372190FBF1F290FBF1F5A5F1800501FB67
:100B400012041B3C02D56442012000E00020DFF8C3
:100B500098A080460027FA44AAF1BE0A0EE0E007FA
:100B60000AD03246684607EB470101230AEB8101B0
:100B700000F046FB8DE8070064107F1C002CEED1CE
:100B8000194F7F44AE3F19E0E80715D007EB04107A
:100B90000DF1180A90E80E008AE80E00C068F042D5
:100BA00001D1981908903246012306A903A800F044
:100BB00027FB03AB83E807006D10641C002DE3D115
:100BC0004FF0010332466946B8F1000F03A802D086
:100BD00000F001FB01E000F013FBC9E90001C9F8D6
:100BE00008200AB0BDE8F0877C3400000048704758
:100BF000F80000207546FFF7F9FFAE46050069468C
:100C0000534620F00700854618B020B5FFF7DAFA02
:100C1000BDE820404FF000064FF000074FF00008FD
:100C20004FF0000B21F00701AC46ACE8C009ACE87E
:100C3000C009ACE8C009ACE8C0098D46704710B5E2
:100C40000446AFF300802046BDE81040FFF7A5BA88
:100C50004FF0013C50F8042B51F8043B9A4221D14B
:100C6000A2EB0C03934313EACC1317D150F8042BD7
:100C700051F8043B9A4215D1A2EB0C03934313EABB
:100C8000CC130BD150F8042B51F8043B9A4209D1F4
:100C9000A2EB0C03934313EACC13DBD04FF000001C
:100CA000704700BFD01A01BAB1FA81F101F0180102
:100CB00022FA01F0CB40C1F12001DBB2C0B2C01A70
:100CC0002CFA01F3D11A914311EAC311E6D170470E
:100CD00001491820ABBEFEE72600020070475FEA1C
:100CE000400C08BF91F0000F4FEA8C234FEAC1225D
:100CF00043EA51514FEA1C5018BF00F5F0404FEA4B
:100D0000300018BF41F000415FEA6C5C00F02980C0
:100D1000BCF1FF3F08BF40F080407047130C06BF96
:100D200012044FF0100C4FF0000C130E04BF12020F
:100D30000CF1080C130F04BF12010CF1040C930FFB
:100D400004BF92000CF1020CD30F04BF52000CF14F
:100D5000010C11464FF00002A0F11F00A0EB0C00A7
:100D6000704711F0004F08BF704731F000413FF469
:100D7000D5AF0B0C06BF09044FF0100C4FF0000C60
:100D80000B0E04BF09020CF1080C0B0F04BF090184
:100D90000CF1040C8B0F04BF89000CF1020CCB0F7B
:100DA00004BF49000CF1010CCCF12003A0EB0C00B6
:100DB00022FA03F302FA0CF241EA030100F1010006
:100DC000704720F07F4C80EA030023F07F47ACEBB4
:100DD000070303F57C5300F0004003F1FF032DE906
:100DE00080494FEA154B09B44FEA144325EA0B4EEC
:100DF00024EA03480FF2042606EB132749083E783D
:100E00005FEA320203FB0667C7F5000707FB06F639
:100E10004FEA54374FEAD64606F1020607FB066C46
:100E2000CCF1005C4FEA1C472CEA074C07FB06F4A8
:100E30000CFB06F504EB15464FEA961634BF00206E
:100E40004FF000404FEAD13706FB07FC4FEA1C4C3D
:100E50000CFB0BF7D21B03FB0CF761EB07010CFB40
:100E60000EF7B0EB074072EB17420CFB08F734BFEC
:100E7000A2EB0742B2EB074261EB17414FEA0C4489
:100E80004FEA910706FB07FC4FEA1C4C0CFB0BF7E3
:100E9000B0EBC74072EB573203FB0CF734BFA2EB49
:100EA000C742B2EBC74261EB57310CFB0EF7B0EB18
:100EB000C70072EB57720CFB08F734BFA2EBC702F6
:100EC000B2EBC70261EB5771039F4FEA816141EAC0
:100ED000921104EBCC044FEAD1374FEA826206FB51
:100EE00007FC42EA90124FEA80604FEA1C4C0CFB70
:100EF0000BF7D21B03FB0CF761EB07010CFB0EF7A2
:100F0000B0EB074072EB17420CFB08F734BFA2EBC3
:100F10000742B2EB074261EB17414FEA8C554FEAAB
:100F2000910704EB9C2406FB07FC4FEA1C4C0CFBCE
:100F30000BF7B0EBC74072EB573203FB0CF734BF33
:100F4000A2EBC742B2EBC74261EB57310CFB0EF785
:100F5000B0EBC70072EB57720CFB08F734BFA2EB83
:100F6000C702B2EBC70261EB577115EB4C254FEA94
:100F7000816141EA92114FEA82624FEAD13742EA37
:100F8000901206FB07FC44F100044FEA80604FEA30
:100F90001C4C0CFB0BF7D21B03FB0CF761EB07019E
:100FA0000CFB0EF7B0EB074072EB17420CFB08F797
:100FB00034BFA2EB0742B2EB074261EB174115EBDE
:100FC0001C154FEA813141EA92414FEA823242EAEE
:100FD00090424FEA80304FEA0C7644F1000448EA30
:100FE00003434EEA0B484FF0000EB2EB080C71EBD6
:100FF000030724BF624639464EEB0E0E4FF0000B3E
:101000000018524149414BEB0B0BB2EB080C71EB52
:1010100003077BF1000B24BF624639464EEB0E0EF0
:101020004FF0000B0018524149414BEB0B0BB2EB58
:10103000080C71EB03077BF1000B24BF62463946B5
:101040004EEB0E0E51EA020718BF46F0010616EBF2
:101050000E7655F1000254F1000103D5BDE8890177
:10106000BDE80088BDE88901BDE80048B6195241D5
:1010700041EB0101A3F10103704780807F7E7D7CFD
:101080007B7A7978777676757473727171706F6E1A
:101090006E6D6C6C6B6A6A696868676666656464C5
:1010A000636362616160605F5F5E5E5D5D5C5C5B4F
:1010B0005B5A5A59595858575756565555555454BE
:1010C000535352525251515050504F4F4F4E4E4D1C
:1010D0004D4D4C4C4C4B4B4B4A4A4A494949484868
:1010E00048474747474646464545454444444443A8
:1010F00043434342424242414141002B9C4630D44B
:1011000077002BD01CB54FEA370703B44FF010001F
:101110004FF01001BAF1000F06D0BCF1000FDCBF98
:1011200040F0080040F008014FF000000FBCBDE89F
:1011300010400BF1010BBBF1010F08BF5FEA17076D
:1011400022BF12F1010211F101014FF0004143F100
:10115000000300F0004043EA00007047F9D357084D
:10116000D0E746EA064613F1400F4FEA16461FDD68
:1011700013F1200FDFBF16430A46002120335B42E4
:10118000BED0C3F1200746EA064602FA07F74FEA47
:10119000164646EA0706C3F1200722FA03F201FACF
:1011A00007F721FA03F14FF0000342EA0702A7E72D
:1011B00046EA020646EA06464FEA164646EA0106AF
:1011C000BCBF46EA0646360C4FF000034FF0000263
:1011D0004FF0000194E72DE9804C9A46934670B495
:1011E00091E8380007C831EA400C48BF34EA430CA4
:1011F00003D5FFF7E6FDFFF780FFF0BCBDE8008CEC
:101200002DE9804C9A46934670B491E8380007C89F
:1012100010F0804F08BF13F0804F03D100F005F8A5
:10122000FFF76BFFF0BCBDE8008C20F07F4780EA41
:10123000030023F07F4C07EB0C03A3F57C5300F075
:101240000040A3F1FE0392F0000F00F0B38095F090
:10125000000F00F077802DE901494FEA11404FEA75
:10126000144621EA004800FB06FC24EA064708FB76
:1012700006F607FB08F800FB07F718EB06484CEBEF
:10128000164C4FEA124B18EB07484FEA15464CEB49
:10129000174022EA0B4E0BFB06FC25EA06470EFB25
:1012A00006F607FB0EFE0BFB07F71EEB064E4CEB9C
:1012B000164C4FF000061EEB074E4CEB174B18EB8D
:1012C0000B0840F1000018EB0E0B58EB000840F142
:1012D00000008F1A4FF000013CBFC943661B14BFCA
:1012E000B5EB040C00213CBFC943F61B4FEA174481
:1012F0004EEA8E0E27EA04454FEA1C4704FB0762BC
:101300002CEA074C05FB07F70CFB05F604FB0CFC6D
:1013100016EB074642EB174216EB0C4642EB1C421B
:101320001BEB060658EB0202414146EA9E0601D538
:10133000BDE80189B619524141EB0101A3F1010356
:10134000BDE801894FEA14454FEA114724EA0546F2
:1013500021EA074C05FB07F406FB07F70CFB06F137
:1013600005FB0CFC11EB074144EB17444FEA124715
:1013700011EB0C4144EB1C4422EA074C05FB07F23D
:1013800006FB07F70CFB06F605FB0CFC16EB074605
:1013900042EB174216EB0C4642EB1C456A1854F11F
:1013A000000148BF7047B619524141EB0101A3F15A
:1013B0000103704795F0000F37D04FEA11424FEA12
:1013C000144721EA024624EA074C02FB07F106FB18
:1013D00007F70CFB06F402FB0CFC14EB074441EB93
:1013E00017414FEA154714EB0C4441EB1C4125EA29
:1013F000074C02FB07F506FB07F70CFB06F602FBA2
:101400000CFC16EB074645EB174516EB0C4645EB77
:101410001C42121951F1000148BF7047B6195241E0
:1014200041EB0101A3F1010370474FEA14454FEA74
:10143000114724EA054621EA074C05FB07F106FBA4
:1014400007F70CFB06F24FF0000605FB0CFC12EB55
:10145000074241EB174112EB0C4251EB1C4148BFD4
:101460007047921841EB0101A3F101037047FEE7B9
:10147000704772B6FEE7000006490020C8610648C2
:10148000016941F004010161016941F0400101611C
:1014900070470000D800002000200240064A0021CA
:1014A000D16106490A6942F002020A61486108698D
:1014B00040F0400008617047D80000200020024042
:1014C000044B0022DA61044A136943F001031361FB
:1014D00001807047D80000200020024014480022FC
:1014E000C168CB06134904D5CA6942F00202CA6139
:1014F0001022C3685B0705D5CB6943F00103CB61BC
:1015000042F00402C369DB0707D0CB6943F0040350
:10151000CB61C16921F00101C161A2F5807101397E
:1015200001D0C2607047C16921F00101C1617047FB
:1015300000200240D800002070B5054600F080FA77
:101540000646114C09E0681C07D025B100F078FA76
:10155000801BA84201D9032070BDE068C007F2D10A
:10156000E068800601D52020E060E068C00605D470
:10157000E069C00702D1E068400703D5FFF7AEFF7E
:10158000012070BD002070BD00200240034A127887
:1015900002700248801C00780870704700F800084C
:1015A00070B586B00C46054600F03CF9002000906E
:1015B0000B4E0120CDE9026004A9684600F094F8C2
:1015C0002A4600233146012000F0ECF82246002391
:1015D000B11C012000F0E6F800F0DAF806B070BDAA
:1015E00000F8000810B590F821100022022905D05B
:1015F0000421816380F82020012010BD01680B6860
:1016000023F00E030B6001680B6823F001030B60ED
:1016100090F84030C46B012101FA03F3636080F855
:10162000211080F82020104610BD000010B590F861
:1016300021100024022903D00421816301243DE00C
:1016400001680A6822F00E020A6001680A6822F046
:1016500001020A601A4A0168914201D1012121E088
:10166000174A1432914201D110211BE0144A28324A
:10167000914201D1891515E0114A3C32914201D1C4
:1016800089140FE00E4A5032914202D14FF480315A
:1016900008E00B4A6432914202D14FF4801101E01C
:1016A0004FF08071064A083A5160012180F82110FC
:1016B000002180F82010416B01B18847204610BD01
:1016C0000800024070B5044600F0BAF90546601CF7
:1016D00002D004480078044400F0B2F9401BA04254
:1016E000FAD370BD0C0000202DE9F04705462648CE
:1016F0000F460126017E01290FD001218146017686
:101700002868DFF888804CF25034022808D0A246BE
:101710002046FFF711FFA8B131E00220BDE8F087B5
:101720002046FFF709FF08BB0120FFF7A5FE204672
:10173000FFF702FFD8F81010064621F00401C8F8A0
:1017400010101CE04FF0FF303860AC6811E020460C
:10175000FFF7A4FE5046FFF7EFFED8F81010060082
:1017600021F00201C8F8101001D03C6007E004F538
:101770008064D5E9020100EB8120A042E7D8002176
:1017800089F818103046C9E7D80000200020024030
:101790000348016941F080010161002070470000A9
:1017A000002002402DE9F05F07461C4888460024CF
:1017B000017E15461E46012909D001218146017688
:1017C0004CF2503A5046FFF7B7FE18B122E0022023
:1017D000BDE8F09F012F02D0022F00D00427D3468E
:1017E000DFF83CA0220128463146FEF7FDFC81B21D
:1017F00008EB4400FFF764FE5846FFF79DFEDAF859
:10180000102022F00102CAF8102018B9641CE4B2BA
:10181000BC42E7D3002289F81820D9E7D80000207D
:1018200000200240064900200A69120607D5054A31
:101830004A60054A4A600969090600D501207047D7
:101840000020024023016745AB89EFCD2DE9F84F19
:10185000DFF8B8910024A9F1040B23460F2709F102
:10186000040AABF1040EC9E00125A5402A40AA42B2
:101870007DD1674ED1F804C0ACEB0608B44532D038
:1018800014DCBCF1030F3AD009DCBCF1000F2AD004
:10189000BCF1010F1CD0BCF1020F31D11DE0BCF135
:1018A000110F17D0BCF1120F2AD119E0B8F5881F1B
:1018B00019D006DCB8F5803F15D0B8F5801F1FD1D0
:1018C00011E0B8F5001F0ED0B8F5041F18D10AE0DA
:1018D000CB6815E0CB681B1D12E0CB6808330FE026
:1018E000CB680C330CE08B682BB1012B4FF0080355
:1018F00003D0456104E0042302E0056100E0002319
:10190000FF2A01D8064601E000F104064FEA8405EB
:1019100001D9A5F12005D6F8008007FA05FC28EAD0
:101920000C0803FA05F548EA0508C6F800804D687A
:10193000ED0062D5374DAE6946F00106AE61AD6986
:1019400024F0030605F001050095334D06EB050C68
:10195000DCF80850A607360F07FA06F825EA08054E
:10196000DFF8B880404503D14FF0000817E044E0AD
:10197000DFF8AC80404502D14FF001080FE0DFF8FE
:10198000A480404502D14FF0020808E0DFF89880BB
:10199000404502D14FF0030801E04FF0040808FA77
:1019A00006F848EA0508CCF808804D68D9F80060C8
:1019B000ED024D4601D5164300E096432E604D687A
:1019C000DAF80060AD02554601D5164300E09643B3
:1019D0002E604D68DBF80060AD035D4601D516430F
:1019E00000E096432E604D68DEF80060ED0375461A
:1019F00001D5164300E096432E60641C0D682A460C
:101A0000E5407FF431AFBDE8F88F000008040140E5
:101A100000001110001002400000014000080140C9
:101A2000000C014000100140001401408068084093
:101A300000D0012070470AB1016170470904FBE73B
:101A400001488068704700000C00002070B5040059
:101A500025D094F83D00002520B984F83C5020465C
:101A600000F076FA242084F83D002068016821F017
:101A7000010101602068016841F4004101602068B3
:101A8000016821F40041016000F0BEFB4D4A61682D
:101A9000914201D84C4900E04C49884201D20120D2
:101AA00070BD4B492368B0FBF1F15E6826F03F063C
:101AB0000E435E606368934206D94FF496735943B0
:101AC0004FF47A73B1FBF3F12368491C1E6A26F0C8
:101AD0003F06314319626168914210D84900401EA7
:101AE000B0FBF1F2521CC2F30B02042A01D2042013
:101AF00022E0B0FBF1F0401CC0F30B001CE0A26838
:101B0000F2B301EBC10303EB0116431EB3FBF6F383
:101B10005B1C43F480431B0549D092B301EBC10227
:101B200002EB0111401EB0FBF1F0401CC0F30B00B2
:101B300040F4804040F400402168CA694CF6FF73CD
:101B40009A431043C861D4E9071001432068026832
:101B500022F0C00211430160D4E90301014320686F
:101B6000826848F2FF339A4311438160D4E905014A
:101B700008432168CA6822F0FF021043C86001E0F0
:101B80000EE016E02068016841F001010160256463
:101B9000202084F83D00256384F83E50002070BD6D
:101BA00001EB4106431EB3FBF6F35B1CB3E70120D8
:101BB000C2E701EB4101401EB0FBF1F0401CC0F355
:101BC0000B00B7E7A086010080841E0000093D00DD
:101BD00040420F002DE9F84F0025DDF82890984687
:101BE00017468A4604460095FFF72AFF064694F8F2
:101BF0003D0020287AD119230122864920460096EB
:101C000001F036F80028F5D194F83C0001286DD099
:101C1000012084F83C0020680168C90703D10168ED
:101C200041F0010101602068016821F40061016058
:101C3000222084F83D00102084F83E00256467626D
:101C4000A4F82A80608D20857348E06233464A46B6
:101C50005146204600F01CFF00287CD1208DDFF883
:101C6000BC81202768B1012814D0022820680168AF
:101C70001ED041F480610160206841698069009054
:101C8000BBE02068416981690091016841F40071FD
:101C90000160B2E02068016821F48061016072B6E1
:101CA0002068416981690091016841F400710AE08E
:101CB00041F40061016072B6206841698169009158
:101CC000016821F48061016062B696E0032865D85E
:101CD00001280CD002284B464FF000024146204616
:101CE00000960BD000F0C4FFA8BB0CE090E0324699
:101CF0004946204601F062F868BB71E000F0B8FF89
:101D000048BB72B633E02068016821F4806101604D
:101D100072B620680069616A0870606A401C60627F
:101D2000208D401E2085608D401E60853C4846F217
:101D3000A8110068B0FBF1F0C0EBC00000EB800020
:101D40000090401E009007D020684069C0434007C3
:101D50000DD50098F5E727E044F8305F6773A57369
:101D6000206940F02000206162B625731CE02068E5
:101D7000016841F40071016020680069616A0870BF
:101D8000606A401C6062218D491E2185618D491E5B
:101D9000618562B621680969017025E032464946CD
:101DA000204601F00BF810B10120BDE8F88F206843
:101DB0000069616A0870606A401C6062208D401E84
:101DC00081B22185608D401E608520684269D243C2
:101DD000520712D4032903D1016821F48061016004
:101DE00020680069616A0870606A401C6062208D2A
:101DF000401E2085608D401E6085208D00287FF468
:101E000065AF84F83D7084F83E5084F83C50CCE7D0
:101E10000220CAE7020010000000FFFF04000100DA
:101E2000180000202DE9F84F1F4690468A460446C8
:101E3000DDF82890FFF704FE054694F83D002028C1
:101E40007FD11923012240492046009500F010FF60
:101E5000002876D194F83C00012872D0012084F843
:101E60003C0020680168C90703D1016841F0010105
:101E700001602068016821F400610160212084F87C
:101E80003D00102084F83E0000262664C4F824801B
:101E90006785608D20852D48E0622B464A46514675
:101EA000204600F06BFE90B920684169806900907F
:101EB00036E02A464946204600F0B8FF50B1206C73
:101EC000042804D12068016841F4007101600120F8
:101ED000BDE8F88F606A216800780861606A401C7C
:101EE0006062618D491E6185218D491E89B22185FF
:101EF00022685369DB435B070BD451B10078106152
:101F0000606A401C6062608D401E6085208D401EAE
:101F100020852A464946204600F07EFE0028CED184
:101F2000208D0028C5D154F83D0B016841F40071A3
:101F30000160202004F81E09E67766770020C7E7D5
:101F4000FFE70220C4E70000020010000000FFFFCE
:101F500010B586B0002100910191029103910068B3
:101F60000F4988421AD10F4CA06940F00800A061C7
:101F7000A069694600F008000490C020009012207B
:101F80000190032003900848FFF760FCE06940F4EB
:101F90000010E061E06900F40010049006B010BD8C
:101FA0000054004000100240000C014002488168CB
:101FB00002781144816070470C000020074810B57A
:101FC000016841F010010160032000F075F80F2056
:101FD00000F006F800F024F8002010BD00200240B8
:101FE00070B50D4D04464FF47A712878B1FBF0F0CE
:101FF0000A490968B1FBF0F000F0DCFA48B9102C8E
:1020000007D200222146501E00F036F800206C60F6
:1020100070BD012070BD00000C00002018000020E1
:102020000C4808B5816941F001018161816901F0C5
:1020300001010091C16941F08051C161C06900F0A6
:10204000805000900448416821F0E06141F0007147
:10205000416008BD0010024000000140002809DB7B
:1020600000F01F02012191404009800000F1E020B2
:10207000C0F8001170470000F0B40E4B1B680C460E
:10208000C3F30223C3F10705042D00D90425191D4C
:10209000072901D2002300E0DB1E012606FA05F124
:1020A000491E214099409E40761E16403143F0BCA7
:1020B00001F015B90CED00E0064900F007020868D0
:1020C0004FF6FF03184040EA0220034A104308601D
:1020D000704700000CED00E00000FA052DE9F04724
:1020E0000F46050061D0434E306800F00700B8424B
:1020F00009D2306820F0070038433060306800F0C3
:102100000700B84251D128683B4C810712D54007DF
:1021100003D5606840F4E06060602878000703D56C
:10212000606840F4605060606068A96820F0F0006A
:10213000084360602878C00728D06868012810D05C
:102140002168022810D0890700292EDA616821F061
:10215000030101436160FFF773FC804641F2883957
:102160000DE021688903EFE78901EDE7FFF768FCDF
:10217000A0EB0801494502D90320BDE8F08760685B
:10218000696800F00C00B0EB810FEFD1306800F00F
:102190000700B8420BD9306820F0070038433060A0
:1021A000306800F00700B84201D00120E5E7287848
:1021B000400705D56068E96820F4E0600843606086
:1021C0002878000706D56068296920F4605040EA45
:1021D000C100606000F038F86168084AC1F303117B
:1021E000515CC8400649086006480068FFF7F8FEE1
:1021F0000020C2E70020024000100240003F00081B
:1022000018000020100000200448054900684968B3
:10221000044AC1F30221515CC840704718000020F5
:1022200000100240103F0008044805490068496852
:10223000044AC1F3C221515CC84070471800002015
:1022400000100240103F00080E4A51680E4801F08D
:102250000C03042B11D0082B0FD10C48C1F383437E
:10226000C903C05C0AD55168084AC1F34041921EB7
:10227000515C054A5043B0FBF1F0704704494843B4
:10228000704700000010024000127A00F03E000883
:1022900000093D002DE9F84F040070D02078C04DB2
:1022A000C00749D06868C0F38100012807D068687A
:1022B000C0F38100022809D16868C00306D52868E8
:1022C000800339D560680028E7D035E06068B0F554
:1022D000803F0BD010B1B0F5A02F11D0286820F4AA
:1022E00080302860286820F4802002E0286840F4CC
:1022F00080302860606890B1FFF7A2FB06460AE0D4
:10230000286840F480202860F0E700BFFFF798FBC2
:10231000801B642873D828688003F7D50CE0FFF78A
:102320008FFB064605E000BFFFF78AFB801B642891
:10233000F0D828688003F7D420789A4E80074FF0B1
:1023400001094FF0000839D5686810F00C0F07D06C
:102350006868C0F38100022809D16868C00306D408
:102360002868800714D52069012808D110E0206969
:10237000B0B1C6F80090FFF763FB074605E00AE13D
:10238000FFF75EFBC01B0228C4D828688007F7D57A
:102390002868616920F0F80040EAC10028600DE07B
:1023A000C6F80080FFF74CFB074604E0FFF748FB48
:1023B000C01B022823D828688007F7D4207800079C
:1023C0002CD57948A169D9B1C0F80090FFF738FB46
:1023D000074604E0FFF734FBC01B02280FD8686AE9
:1023E0008007F7D571484FF4FA510068B0FBF1F05F
:1023F000009000BF0098411E0091FAD20EE080E0EC
:10240000C0F80080FFF71CFB074604E0FFF718FB4D
:10241000C01B022875D8686A8007F7D42078400767
:1024200060D5E8690027C00008D4E86940F0805012
:10243000E861E869012700F0805000905C4801687D
:10244000C90513D40168834641F480710160FFF728
:10245000F7FA824606E000BFFFF7F2FAA0EB0A00A7
:1024600064284ED8DBF80000C005F5D5E0680128E7
:102470000AD008B1052813D0286A20F0010028628C
:10248000286A20F0040002E0286A40F00100286277
:10249000E06841F2883B98B1FFF7D2FA82460BE040
:1024A000286A40F004002862EEE700BFFFF7C8FA90
:1024B000A0EB0A0159455AD8286A8007F6D50CE0E6
:1024C000FFF7BEFA824605E0FFF7BAFAA0EB0A0171
:1024D00059454CD8286A8007F6D41FB1E86920F026
:1024E0008050E861E06988B36968C1F3810102291D
:1024F00044D00228C6F8608004D0FFF7A1FA044651
:1025000038E034E0FFF79CFA074604E0FFF798FA5A
:10251000C01B02282BD828688001F7D4206AB0F5A8
:10252000803F05D16868A16820F4003008436860E6
:10253000D4E908010843696821F47411084368600C
:10254000C6F86090FFF77CFA044606E025E000BF7D
:10255000FFF776FA001B022809D828688001F7D512
:102560001BE000BFFFF76CFA001B022802D9032012
:10257000BDE8F88F28688001F4D40EE00128F7D078
:102580006868226A00F48031914204D1616A00F4E3
:102590007010884201D00120EAE70020E8E700003F
:1025A0000010024000004242800442421800002015
:1025B0000070004010B5401EB0F1807F01D30120B3
:1025C00010BD4FF0E02460610F21601700F087FE1E
:1025D0000020A06107202061002010BD70477047D7
:1025E000F8B5016804460868CA684B6910F00F0F17
:1025F0004FF0000559D003F0010602F490773743FD
:1026000065D0C10705D0D10503D5616C41F001014A
:102610006164410705D5D90703D0616C41F002011F
:102620006164810705D5D90703D0616C41F00401CD
:102630006164010707D502F02001314303D0616CCA
:1026400041F008016164616C00293AD0800604D52C
:10265000900602D5204600F015FD20684069616CA7
:10266000C0F38010090700D460B3204600F0E3FCFB
:1026700020684069400621D52068143050E8001FCA
:1026800021F0400140E80012002AF5D1E06BA8B12A
:102690006D494163E06BFEF7C9FF002811D0E06B84
:1026A000416B01B0BDE8F040084783060FD59306A3
:1026B0000DD52046BDE8F84000F0E4BC2046FFF709
:1026C0008EFFF8BD2046FFF78AFF6564F8BD266BD4
:1026D0002023012E7CD1C6067AD5D60678D5086887
:1026E0004868009048694FF00206400640D5E16B0B
:1026F000086840680004000CE8D0A28D8242E5D949
:10270000E085886920282DD020680C3050E8001F13
:1027100021F4807140E80012002AF5D120681430BD
:1027200050E8001F21F0010140E80012002AF5D115
:102730002068143050E8001F21F0400140E80012EA
:10274000002AF5D184F84230256320680C3050E827
:10275000001F21F0100140E80012002AF5D1E06BC3
:10276000FEF740FF6663A08DE18D401A81B22AE03A
:10277000A08DE18D401A81B2E08D0028A6D00029FD
:10278000A4D022680C3252E8000F20F4907042E886
:102790000007002FF5D12068143050E8002F22F0F8
:1027A000010240E80027002FF5D184F8423025636C
:1027B00020680C3050E8002F22F0100240E800237F
:1027C000002BF5D166632046FFF708FFF8BDFFE751
:1027D00005062BD5150629D594F841002128F5D1F9
:1027E000A068B0F5805F01D12069B0B1206A411CBA
:1027F0002162216800784860E08C401E0004000CD3
:10280000E084E3D12068C16821F08001C1602068C4
:10281000C16841F04001C160D8E7206A0088C0F378
:1028200008004860206A801C2062E5E74006CDD59C
:102830005006CBD5CA68204622F04002CA6084F810
:10284000413000F00BF9C1E72730000870B50400F3
:1028500004D094F84100002510B106E0012070BDBD
:1028600084F84050204600F023F8242084F84100EA
:102870002068C16821F40051C160204600F064FC6A
:102880002068016921F4904101612068416921F0CB
:102890002A0141612068C16841F40051C16065644A
:1028A000202084F8410084F842006563002070BD58
:1028B00030B585B00024009401940294039400681C
:1028C000184988422CD11848816941F480418161BE
:1028D000816901F480410491816941F004018161C1
:1028E0008069124D00F0040004904FF400700090D5
:1028F000022001900320039069462846FEF7A6FFB8
:102900002815CDE90004694628460294FEF79EFF8B
:10291000002211462520FFF7AFFB2520FFF79EFB85
:1029200005B030BD003801400010024000080140F1
:1029300090F84230202B01D00220704721B11AB10B
:102940000023036300F05CBC0120704710B5072230
:1029500010A11248FDF752FDA0B91148806800F09F
:10296000F9FF02460B460FA10C48FDF751FC4FF44E
:102970007A70FEF7A7FE4FF0FF33202207490E487A
:1029800000F01CF8BDE810400A2204490A48FFF78D
:10299000CFBF00005265706F727420001C000020D1
:1029A0000000002054656D70206973203A20252EA8
:1029B0003166200D0A000000900000202DE9F84348
:1029C000044690F84100984616460D46202802D04D
:1029D0000220BDE8F88385B17EB10020606421202B
:1029E00084F84100FFF72CF8A6848146E684A068AD
:1029F0002027B0F5805F02D003E00120E9E72069DD
:102A000010B12E4600250EE000260CE08021204665
:102A100000F011FCA8B9C6B116F8010B2168486096
:102A2000E08C401EE084E08C4B464FF00002CDF875
:102A300000800028EAD14FF04001204600F0FBFB67
:102A400040B184F841700320C3E735F8020BC0F3AE
:102A50000800E3E784F841700020BAE77047FEE71A
:102A600001684A69D24352050FD46FF480624A610B
:102A7000002140F8301F202242738173026942F026
:102A800004020261017301207047002070470000BA
:102A90002DE9F84F0446C06A1E4693460D4621684C
:102AA0000A6842F480620A60082807D0012805D02D
:102AB00010F5803F02D0206B112804D120680168F6
:102AC00041F4807101604FF001195B4600224946D4
:102AD0002046009600F0CCF84FF4007840B1206812
:102AE0000068C00501D5C4F840800320BDE8F88F18
:102AF0002069DFF884A0B0F5804F0FD00620216850
:102B000000EAD51747F0F000086133465A460AF14B
:102B10000601204600F0F4F858BB03E0E8B240F0AC
:102B200001001CE02168E8B2086133465A4651466C
:102B3000204600F0E5F8E0B920684169816900911C
:102B4000016841F4807101605B46002249462046DD
:102B5000009600F08DF80028C1D147F0F1002168FF
:102B6000086133465A465146204600F0C9F800280D
:102B7000BCD00120BAE7000002000100F8B504460D
:102B8000C06A1E460D461746082807D0012805D002
:102B900010F5803F02D0206B122804D12068016814
:102BA00041F480710160134600224FF0011120466C
:102BB000009600F05DF840B120680068C00502D5BD
:102BC0004FF4007020640320F8BD2069B0F5804FF9
:102BD0000ED00620216800EAD51040F0F000086110
:102BE00033463A460B49204600F08AF878B902E0AD
:102BF00005F0FE0000E0E8B22168086105493346AF
:102C00003A46891F204600F07BF80028DCD00120DE
:102C1000F8BD00000800010070B516460D460446D8
:102C20001EE02046FFF71CFF08B1012070BD681CA4
:102C300016D0FEF705FF801BA84200D885B9206892
:102C40004069C04340070BD5002044F8300F2021D5
:102C50006173A073216941F0200121612073E4E7D1
:102C600020684069C0434007DBD4002070BD0000ED
:102C70002DE9F047984617460D460446C1F307462E
:102C8000DDF820902AE000BFB8F1FF3F26D0FEF724
:102C9000D7FEA0EB0901414502D8B8F1000F1DD1C4
:102CA0002068012E16D0806925EA00000004000C7F
:102CB00012D00020B84211D1002044F8300F20215A
:102CC0006173A073216941F020012161207301200B
:102CD000BDE8F0874069E7E70120EBE72068012EB7
:102CE0000AD0806925EA00000004000C06D000200C
:102CF000B842C9D00020EBE74069F3E70120F7E7CD
:102D00002DE9F047984616460D4604464FF0000957
:102D10004FF0200AC1F3074723E020684069C04311
:102D2000400515D42068016841F4007101602168F4
:102D30006FF480604861C4F8309084F83DA084F856
:102D40003E90216C41F00401216484F83C9021E024
:102D5000701C06D0FEF774FEA0EB0800B04203D84A
:102D600016B1012F1FD021E02068012F15D08069F6
:102D700025EA00000004000C18D000BF44F8309F82
:102D800084F80DA084F80E90216941F020012161A2
:102D900084F80C900120BDE8F087406925EA000026
:102DA0000004000CEAD12068406901E020688069D5
:102DB00025EA00000004000CAFD1ECE72DE9F0415A
:102DC000002590460E460446202728E04069C0436F
:102DD000C0060CD454F8301B6FF01000486144F862
:102DE00010596777A577206A2062257714E0FEF7EF
:102DF00027FEA0EB0800B04200D886B920684069E1
:102E0000C04340060BD544F8305F6773A573206953
:102E100040F02000206125730120BDE8F08120688A
:102E20004169C9434906D1D40020F6E770B516467A
:102E30000D4604461EE02046FFF712FE08B10120B1
:102E400070BD681C16D0FEF7FBFD801BA84200D8A1
:102E500085B920684069C04300060BD5002044F8BE
:102E6000300F20216173A073216941F0200121619D
:102E70002073E4E720684069C0430006DBD40020EB
:102E800070BD00002DE9F04385B000242C4800946B
:102E9000019402940394816941F010018161816978
:102EA00001F010010491816941F00401816181699F
:102EB00001F004010491816941F008018161806998
:102EC000204F00F008004FF40055049000222946DE
:102ED0003846FEF7B0FDDFF8708000220F21404633
:102EE000FEF7A9FDDFF8649000220B214846FEF7AB
:102EF000A2FD0095022601250396CDE901546946FD
:102F00003846FEF7A3FC0F20CDE90005CDE90246C7
:102F100069464046FEF79AFC0B20CDE90005CDE955
:102F2000024669464846FEF791FC4FF470408DE832
:102F3000310069464846FEF789FC05B0BDE8F083DC
:102F4000001002400010014000080140000C014048
:102F50000D4810B50B4901600C49416000214FF448
:102F600080428160C0E9031241618161C1610162F7
:102F7000FEF76CFD002803D0BDE81040FEF779BADB
:102F800010BD0000005400403C000020A08601005D
:102F90000C4810B50A4901604FF4165141600021F8
:102FA00081600C22C160C0E904128161C161FFF738
:102FB0004DFC002803D0BDE81040FEF75ABA10BD02
:102FC0000038014090000020FEE7FEE770477047A0
:102FD000FEF7ECBF10B590B028216846FDF759FA0E
:102FE00014210AA8FDF755FA022000900120049050
:102FF00010200024059007946846FFF74BF908B1AC
:1030000072B6FEE70F20CDE90A040C940D9400215E
:103010000AA80E94FFF762F8002801D072B6FEE706
:1030200010B010BD704710B5406A0021C185C18441
:10303000FFF7D5FA10BD01680C3151E8002F22F4DA
:10304000907241E80023002BF5D10168143151E85A
:10305000002F22F0010241E80023002BF5D1016B83
:10306000012909D101680C3151E8002F22F010022A
:1030700041E80023002BF5D1202180F842100021E7
:103080000163704708B590F84210222901D0022050
:1030900008BD82684FF480539A4201D1016921B181
:1030A000816A9A421BD04AB10AE00268816A52687A
:1030B000C2F308020A80816A891C08E0026972B1C1
:1030C0000268526802F07F020A70816A491C8162BC
:1030D000C18D491E0904090CC18503D01BE002689B
:1030E0005268F1E70168CA6822F02002CA600168EC
:1030F000CA6822F48072CA6001684A6922F001023B
:103100004A61202180F8421000214163026B012AAC
:1031100003D0FFF71BFC002008BD016301680C31E0
:1031200051E8002F22F0100241E80023002BF5D1D6
:1031300001680A68D20602D50A6849680091818D43
:10314000FFF74CFAE7E7000070B504460068016934
:10315000E26821F44051114301612169A0680843EC
:10316000616908432168CA6841F20C639A430243CB
:10317000CA6020684169A26921F44071114341612C
:103180001E492068884202D1FFF74EF801E0FFF7A0
:103190003BF800EBC00101EB001260686421800085
:1031A000B2FBF0F3B3FBF1F36FF018067343B2FB1D
:1031B000F0F5B2FBF0F605EB8305322303EB0515C2
:1031C000B5FBF1F5B6FBF1F605F0F00505EB0615DC
:1031D000B2FBF0F6B2FBF0F0B0FBF1F06FF01802CA
:1031E000504306EB800003EB0010B0FBF1F02168C8
:1031F00000F00F002844886070BD000000380140D6
:1032000081628285C28500214164222180F84210BA
:10321000016921B10168CA6842F48072CA6001681C
:103220004A6942F001024A610068C16841F0200128
:10323000C160002070472DE9F843984617460D46B7
:103240000446089E24E0701C22D0FEF7F9FBA0EB98
:103250000800B0421AD8CEB12068C168490717D516
:10326000802D15D0402D13D00168C94309070FD414
:1032700001680025406800902046FFF7DCFE08202A
:10328000606484F840500120BDE8F8830320FBE728
:103290002068006835EA000004D00020B842D2D08F
:1032A0000020F1E70120F9E70148FFF799B9000094
:1032B00090000020FEE7490050EAC12018BF04201A
:1032C0004A0D18BF40F0010040F2FF72B2EB515FAF
:1032D00008BF40F00200012808BF05207047090719
:1032E000090E002804DB00F1E02080F8001470478C
:1032F00000F00F0000F1E02080F8141D7047303816
:103300000A2801D201207047002070472DE9F05FA4
:1033100090460C46064601254FF4005B00F01AFB70
:1033200081468A46204600F0B5FB07463D4C3146B3
:1033300000F0C4FB21D2404600F0ACFB314600F067
:10334000BDFC1AD2012259463748FEF774FB00F043
:10335000ABF80021084600F0B0F84A46534633A1C6
:103360003648FCF755FF354800F0C8F86420FEF7F2
:10337000A9F90020E070BDE8F09F3846314600F022
:103380009DFC29484FF0000259461CD2FEF753FB22
:1033900000F08AF80021084600F08FF828A000F01D
:1033A000ADF80121002000F088F84A4653461FA1DD
:1033B0002248FCF72DFF214800F0A0F8E078002813
:1033C0002AD123A11AE0FEF736FB00F06DF80021A8
:1033D000084600F072F826A000F090F801210020C5
:1033E00000F06BF84A46534610A11448FCF710FF52
:1033F000124800F083F8E07870B922A10F48FCF77A
:1034000007FF0E48FCF7DBFF82B24FF0FF330B499A
:103410002448FFF7D3FAE570BDE8F05F6420FEF7BB
:1034200051B90000000000200010014054656D708B
:10343000206973203A20252E316600001C000020F0
:1034400054656D7020697320746F6F206C6F770006
:103450005741524E494E472121210D0A54656D7046
:1034600020697320746F6F206C6F770D0A00000065
:1034700054656D7020697320746F6F206869676888
:10348000000000005741524E494E472121210D0AAC
:1034900054656D7020697320746F6F206869676868
:1034A0000D0A00009000002010B50120FEF70AF977
:1034B000BDE81040012000F0F1B870B504460D469B
:1034C0000120FEF7FFF83DB1012D07D1C034E0B275
:1034D000BDE8704000F0E2B88034F8E770BD10B588
:1034E0000220FEF7EFF8022000F0D8F8282000F0C4
:1034F000D5F8BDE810400F2000F0D0B810B5044654
:103500000220FEF7DFF802E000F0E2F8641C207809
:103510000028F9D110BD000008B5FEF74FFDFFF7F8
:1035200059FDFFF7AFFCFFF733FDFFF711FDFFF784
:10353000D6FF194C4FF0FF30009020780323410054
:10354000221D1648FEF76EFC0A20FEF7BBF8611C30
:10355000481CFEF71BF80A2211491248FFF7E8F948
:10356000114E4FF4805500BF00F020F8A060A27803
:103570006178FFF7CBFE29463046FEF757FA002860
:10358000F2D16420FEF79EF800F0BCF86178A078D4
:10359000FEF706F8E8E70000000000203C000020ED
:1035A0001C00002090000020000C01401FB519A055
:1035B0000323006803900020441E0190029003AA98
:1035C000702100941448FEF72DFC5020FEF77AF885
:1035D000072301AA702110480094FEF7FBFA9DF81A
:1035E00007009DF80610000400EB01209DF805106F
:1035F0000844C0F3130000F04DFA6FF0130100F01F
:1036000038FC064900F08EFA04B00549BDE81040C8
:1036100000F086BBAC3300003C00002000004843B3
:10362000000048421FB504460A20FEF74BF800216F
:103630004FEA0D0004F0010240F821206408491C03
:103640000429F7DB0098134CC2B201212046FEF793
:10365000F2F901980221C2B22046FEF7ECF9029875
:103660000421C2B22046FEF7E6F903980821C2B24F
:103670002046FEF7E0F9084C012208212046FEF71B
:10368000DAF90220FEF71EF8002208212046FEF794
:10369000D2F91FBD00080140000C014070B504467E
:1036A0000220FEF70FF8094D002201212846FEF7FF
:1036B000C2F9002202212846FEF7BDF92009FFF7D2
:1036C000B1FF2046BDE87040FFF7ACBF000C0140E1
:1036D00070B504460220FDF7F5FF094D01221146A1
:1036E0002846FEF7A8F9002202212846FEF7A3F992
:1036F0002009FFF797FF2046BDE87040FFF792BF13
:10370000000C01402DE9F05F0025FFF7CDFEDFF84A
:10371000E08178A1444698F802207948FCF778FDCA
:1037200000210846FFF7C9FE7548FFF7E7FE6278FB
:1037300074A17348FCF76CFD01210020FFF7BDFE6A
:103740006F48FFF7DBFE4FF47A794846FDF7BAFF82
:103750004FF480466E4C4FF4805B77104FF4004A74
:1037600059462046FEF762F900B901253146204648
:10377000FEF75CF9002857D1FFF796FE454698F80A
:1037800002205CA15E48FCF743FD00210846FFF7DC
:1037900094FE5B48FFF7B2FE4846FDF793FF3146C3
:1037A0002046FEF743F998B9A878401CA870FFF7A7
:1037B0007BFEAA784FA15248FCF72AFD002108465B
:1037C000FFF77BFE4E48FFF799FE4846FDF77AFF6C
:1037D00039462046FEF72AF998B9A878401EA87005
:1037E000FFF762FEAA7843A14548FCF711FD0021CE
:1037F0000846FFF762FE4248FFF780FE4846FDF7A5
:1038000061FF51462046FEF711F90028C7D1FFF7A6
:103810004BFE00210846FFF750FE3EA0FFF76EFE6C
:103820004846FDF74FFF012539462046FEF7FEF8D2
:1038300018B1002D94D0BDE8F09FFFF735FE454646
:1038400098F801202FA12E48FCF7E2FC0021084641
:10385000FFF733FE2A48FFF751FE4846FDF732FFD7
:10386000B046564641462046FEF7E0F898B96878DB
:10387000401C6870FFF718FE6A7822A12048FCF708
:10388000C7FC00210846FFF718FE1D48FFF736FE6B
:103890004846FDF717FF39462046FEF7C7F898B9A6
:1038A0006878401E6870FFF7FFFD6A7815A114481C
:1038B000FCF7AEFC00210846FFF7FFFD1048FFF7BC
:1038C0001DFE4846FDF7FEFE31462046FEF7AEF8E7
:1038D0000028C7D1FFF7E8FD00210846FFF7EDFDFE
:1038E0000CA0FFF70BFE4846BDE8F05FFDF7EABE0F
:1038F000000000204D6178203A202564000000007F
:103900001C0000204D696E203A2025640000000054
:10391000000C01404368616E6765640010B50029C2
:103920000AD00878002807D005487844FDF790F9B8
:10393000002801D0002010BD0248784410BD0000CE
:10394000A20600009A0600000808A0F500114FEA40
:103950003101704743004FEAD30C4FEA3C0C43401F
:103960001FBF40070CF1605113F0FE4F70471CF071
:10397000006F03D100200CF0004170470CF00043B1
:1039800043EA507010B540EACC0000F04CF900BF9B
:10399000000000924FEA0001FFF7D6BF4FF0004150
:1039A0004FF00000A1F500217047000090EA010FE0
:1039B00048BF81F0004100F1BA81421A3CBF801A31
:1039C00089184FEAD0524FF07F4C1CEA410FA2EB0E
:1039D000D15318BF9CEA026F00F03B804FF0004CBF
:1039E0004CEA00204CEA012121FA03FC10EB0C0CFC
:1039F0001ED202F1FF325FEA1C2040EBC25038BFFA
:103A000070471CF07F0F4FEA400C18BFBCF17F4F8E
:103A100038BF7047C3F12003994008BF20F0010070
:103A2000BCF17F4F38BF7047A0F1C04000F041B9F2
:103A30004FEA3C00000A40EBC25028BF1CF0FF0FC9
:103A40004FEA400CE6D018BFBCF17F4F38BF70473B
:103A5000EAE79CEA026F05D010EA5C0F08BF00F0AD
:103A60000040704710B500F0DEF800BF64FBBE3EBA
:103A7000014800F0CCB900BF0000C07F401058BF23
:103A8000C0F14040491058BFC1F140418142EFF3BD
:103A900000807047B0FA80F310FA03F2C3F19D037F
:103AA0000AD0D90501EB1220530638BF704700F148
:103AB000010008BF20F001007047000050EA010C2F
:103AC00000F113801CF5000F58BFBCF5000F01D4A6
:103AD0008842704707D710F5000F58BF11F5000F47
:103AE00015D488427047894270471CF5000F04D5F1
:103AF000BCF5000FF7D5814270474FF0807C1CEB7E
:103B0000400F38BF1CEB410F01D28142704710B506
:103B100000F089F8922449004FF000504FF0805196
:103B2000FFF7ACBF4FF47F0C1CEAD0121EBF1CEA9B
:103B3000D11392EA0C0F93EA0C0F00F0478090EA41
:103B4000010F48BF42F480724FF0004C4CEA002055
:103B50004CEA012102EB0302A0FB0113A2F50002D3
:103B6000002918BF43F001035B0028BF4FEA33036D
:103B700042EB22425FEA132C4CEBC2502EBFBCEB4F
:103B8000436FB2F57C0F70474FEA036CBCF1004FF6
:103B900008BF20F00100B2F57C0F38BF70470BD58D
:103BA00082F0FF0212F5803FC8BF704700F1C040AD
:103BB000D8BF00F00040704700F5000C5FEA4C0CE5
:103BC00048BF7047B0F1C04000F073B890EA010FF1
:103BD0000CEAD11348BF42F48072624538BF634596
:103BE00004D280EA010000F00040704710B500F0F8
:103BF0001AF800BF8900013E00F007B800F009B8CC
:103C00005FEA410C5FEA1C6C08D080EA010000F01A
:103C100050B85FEA400C5FEA1C6CF6D14FF00040F0
:103C2000A0F5800070470EF1020E2EF0030E5EF834
:103C3000044B244204D44FEA4102B2F17F4F11D821
:103C40004FEA4003B3F17F4F0CD80ED14FEAD07C3E
:103C5000B2F17F4F0CEB4C0C0CF1020C08BF4CEB9B
:103C6000D17C04E04FF0080C01E04FEAD17C0CEB72
:103C70004C0324FA03F404F00704B4F1040C06D254
:103C80000EEB840CBDE810404CF0010C6047DFE8FF
:103C90000CF0070802024FF00040A0F5800010BDB4
:103CA0000846420018BFD2F1807288BF00F0004081
:103CB00010BDFF2141EAD050C005704751EA000C09
:103CC00000F113801CF5000F58BFBCF5000F01D4A4
:103CD0008142704707D711F5000F58BF10F5000F4C
:103CE00015D481427047894270471CF5000F04D5F6
:103CF000BCF5000FF7D5884270474FF0807C1CEB75
:103D0000410F38BF1CEB400F01D28842704780EA58
:103D1000010081EA000180EA0100FFF7F8BE00001F
:103D200090EA010F48BF81F000413FF546AE421ACC
:103D300004D882F00042A0EB020011444FEAD052B6
:103D40004FF07F4C1CEA410FA2EBD15318BF9CEA05
:103D5000026F4AD04FF0004C4CEA00204CEA01219F
:103D600021FA03FCB0EB0C0C0FD412F0FE0F36D08E
:103D70005FEA4C001DD5001240EBC25038BF7047BF
:103D80001CF03F0F18BF70470BE0A2F101025FEA81
:103D90001C2040EBC25038BF70471CF07F0F18BF8B
:103DA0007047C3F12003994014BF401E20F001006A
:103DB000704780084FEA122308BF7047B0FA80FCB2
:103DC000A2EB0C02CCF1280C60FA0CF093EA122F53
:103DD00004BF00EBC25070474FEAC3707047130A2C
:103DE0005FEADC1008BF7047F6E79CEA026F04D078
:103DF00010EA5C0F08BF0020704710B5FFF713FFF3
:103E000040DFF63E81F000407047FCF79EBC0CF0AE
:103E10000F03092B08BF082000F051800A2B0BD09C
:103E2000082B18BF704708BF1CF0400F0AD04FF096
:103E300000004FF0000170471CF0400F18BF4FF01A
:103E4000004070471CF0100F08D020F0704300F0C5
:103E50007F4242EAD3014FEA4370704700F060406E
:103E600021F07F4242EA000201F07F4040EA727096
:103E700070474FF0FF0212EAD0521CBF92F0FF03CE
:103E80008B42C2BFD14200EBC1507047002A0AD01A
:103E9000002B0BD0002900F00040A4BF40F0FE40F2
:103EA00040F40000704700F00040704743024FF0BC
:103EB0000B0C18BF4CF0806C7FF4DAAD70471CF42B
:103EC000801F11D01CF4E02F03D06FEACC314900E1
:103ED00070474FF04050EFF3008222F0704242EA08
:103EE000000282F3008870474FF000007047010223
:103EF00002030405060708090A0B0C0D0E0F10102B
:103F00000000000000000000010203040607080989
:103F1000000000000102030402400000000000A0B5
:103F20000000000005400000000000C80000000084
:103F30000C4000000000409C000000001940000000
:103F40000020BCBE0000000034400000BFC91B8E32
:103F500000000004B5400000504BCFD06607E2CF10
:103F6000010000006C4100003E8251AADFEEA73440
:103F700001000000D9420000DCB5A0E23A301F97F2
:103F8000FFFFFFFFB4450000FD25A0C8E9A3C14F16
:103F9000FFFFFFFFFF3F0000000000800000000067
:103FA000FF3F00000000008000000000E83F000824
:103FB000000000201C000000280100080440000848
:103FC0001C0000203C070000440100081C00000009
:103FD00043000000F8FFFFFF0C0000000E0000008F
:103FE0000F0000002E00000038003C00E108000037
:103FF0000000484201000000100000000000000026
:0440000000127A0030
:04000005080000ED02
:00000001FF
